{"abi":[{"inputs":[],"stateMutability":"nonpayable","type":"constructor"},{"inputs":[{"internalType":"string","name":"task","type":"string"}],"name":"create","outputs":[],"stateMutability":"nonpayable","type":"function"},{"inputs":[{"internalType":"uint256","name":"index","type":"uint256"}],"name":"deleteTask","outputs":[],"stateMutability":"nonpayable","type":"function"},{"inputs":[],"name":"manager","outputs":[{"internalType":"address","name":"","type":"address"}],"stateMutability":"view","type":"function"},{"inputs":[{"internalType":"uint256","name":"index","type":"uint256"}],"name":"markComplete","outputs":[],"stateMutability":"nonpayable","type":"function"},{"inputs":[],"name":"numberOfTask","outputs":[{"internalType":"uint256","name":"","type":"uint256"}],"stateMutability":"view","type":"function"},{"inputs":[{"internalType":"uint256","name":"","type":"uint256"}],"name":"taskToDo","outputs":[{"internalType":"string","name":"task","type":"string"},{"internalType":"bool","name":"isDone","type":"bool"}],"stateMutability":"view","type":"function"}],"devdoc":{"kind":"dev","methods":{},"version":1},"evm":{"assembly":"    /* \"todolist.sol\":65:892  contract todo_list {\r... */\n  mstore(0x40, 0x80)\n    /* \"todolist.sol\":275:328  constructor() {\r... */\n  callvalue\n  dup1\n  iszero\n  tag_1\n  jumpi\n  0x00\n  dup1\n  revert\ntag_1:\n  pop\n    /* \"todolist.sol\":310:320  msg.sender */\n  caller\n    /* \"todolist.sol\":300:307  manager */\n  0x02\n  0x00\n    /* \"todolist.sol\":300:320  manager = msg.sender */\n  0x0100\n  exp\n  dup2\n  sload\n  dup2\n  0xffffffffffffffffffffffffffffffffffffffff\n  mul\n  not\n  and\n  swap1\n  dup4\n  0xffffffffffffffffffffffffffffffffffffffff\n  and\n  mul\n  or\n  swap1\n  sstore\n  pop\n    /* \"todolist.sol\":65:892  contract todo_list {\r... */\n  dataSize(sub_0)\n  dup1\n  dataOffset(sub_0)\n  0x00\n  codecopy\n  0x00\n  return\nstop\n\nsub_0: assembly {\n        /* \"todolist.sol\":65:892  contract todo_list {\r... */\n      mstore(0x40, 0x80)\n      callvalue\n      dup1\n      iszero\n      tag_1\n      jumpi\n      0x00\n      dup1\n      revert\n    tag_1:\n      pop\n      jumpi(tag_2, lt(calldatasize, 0x04))\n      shr(0xe0, calldataload(0x00))\n      dup1\n      0x062ffdff\n      eq\n      tag_3\n      jumpi\n      dup1\n      0x481c6a75\n      eq\n      tag_4\n      jumpi\n      dup1\n      0x560f3192\n      eq\n      tag_5\n      jumpi\n      dup1\n      0x67067ed6\n      eq\n      tag_6\n      jumpi\n      dup1\n      0xb6a46b3b\n      eq\n      tag_7\n      jumpi\n      dup1\n      0xfc8d0374\n      eq\n      tag_8\n      jumpi\n    tag_2:\n      0x00\n      dup1\n      revert\n        /* \"todolist.sol\":163:203  mapping(uint256 => Task) public taskToDo */\n    tag_3:\n      tag_9\n      0x04\n      dup1\n      calldatasize\n      sub\n      dup2\n      add\n      swap1\n      tag_10\n      swap2\n      swap1\n      tag_11\n      jump\t// in\n    tag_10:\n      tag_12\n      jump\t// in\n    tag_9:\n      mload(0x40)\n      tag_13\n      swap3\n      swap2\n      swap1\n      tag_14\n      jump\t// in\n    tag_13:\n      mload(0x40)\n      dup1\n      swap2\n      sub\n      swap1\n      return\n        /* \"todolist.sol\":244:266  address public manager */\n    tag_4:\n      tag_15\n      tag_16\n      jump\t// in\n    tag_15:\n      mload(0x40)\n      tag_17\n      swap2\n      swap1\n      tag_18\n      jump\t// in\n    tag_17:\n      mload(0x40)\n      dup1\n      swap2\n      sub\n      swap1\n      return\n        /* \"todolist.sol\":770:889  function deleteTask(uint256 index) public restricted {\r... */\n    tag_5:\n      tag_19\n      0x04\n      dup1\n      calldatasize\n      sub\n      dup2\n      add\n      swap1\n      tag_20\n      swap2\n      swap1\n      tag_11\n      jump\t// in\n    tag_20:\n      tag_21\n      jump\t// in\n    tag_19:\n      stop\n        /* \"todolist.sol\":618:762  function markComplete(uint256 index) public restricted {\r... */\n    tag_6:\n      tag_22\n      0x04\n      dup1\n      calldatasize\n      sub\n      dup2\n      add\n      swap1\n      tag_23\n      swap2\n      swap1\n      tag_11\n      jump\t// in\n    tag_23:\n      tag_24\n      jump\t// in\n    tag_22:\n      stop\n        /* \"todolist.sol\":427:610  function create(string memory task) public restricted {\r... */\n    tag_7:\n      tag_25\n      0x04\n      dup1\n      calldatasize\n      sub\n      dup2\n      add\n      swap1\n      tag_26\n      swap2\n      swap1\n      tag_27\n      jump\t// in\n    tag_26:\n      tag_28\n      jump\t// in\n    tag_25:\n      stop\n        /* \"todolist.sol\":210:237  uint256 public numberOfTask */\n    tag_8:\n      tag_29\n      tag_30\n      jump\t// in\n    tag_29:\n      mload(0x40)\n      tag_31\n      swap2\n      swap1\n      tag_32\n      jump\t// in\n    tag_31:\n      mload(0x40)\n      dup1\n      swap2\n      sub\n      swap1\n      return\n        /* \"todolist.sol\":163:203  mapping(uint256 => Task) public taskToDo */\n    tag_12:\n      mstore(0x20, 0x00)\n      dup1\n      0x00\n      mstore\n      keccak256(0x00, 0x40)\n      0x00\n      swap2\n      pop\n      swap1\n      pop\n      dup1\n      0x00\n      add\n      dup1\n      sload\n      tag_33\n      swap1\n      tag_34\n      jump\t// in\n    tag_33:\n      dup1\n      0x1f\n      add\n      0x20\n      dup1\n      swap2\n      div\n      mul\n      0x20\n      add\n      mload(0x40)\n      swap1\n      dup2\n      add\n      0x40\n      mstore\n      dup1\n      swap3\n      swap2\n      swap1\n      dup2\n      dup2\n      mstore\n      0x20\n      add\n      dup3\n      dup1\n      sload\n      tag_35\n      swap1\n      tag_34\n      jump\t// in\n    tag_35:\n      dup1\n      iszero\n      tag_36\n      jumpi\n      dup1\n      0x1f\n      lt\n      tag_37\n      jumpi\n      0x0100\n      dup1\n      dup4\n      sload\n      div\n      mul\n      dup4\n      mstore\n      swap2\n      0x20\n      add\n      swap2\n      jump(tag_36)\n    tag_37:\n      dup3\n      add\n      swap2\n      swap1\n      0x00\n      mstore\n      keccak256(0x00, 0x20)\n      swap1\n    tag_38:\n      dup2\n      sload\n      dup2\n      mstore\n      swap1\n      0x01\n      add\n      swap1\n      0x20\n      add\n      dup1\n      dup4\n      gt\n      tag_38\n      jumpi\n      dup3\n      swap1\n      sub\n      0x1f\n      and\n      dup3\n      add\n      swap2\n    tag_36:\n      pop\n      pop\n      pop\n      pop\n      pop\n      swap1\n      dup1\n      0x01\n      add\n      0x00\n      swap1\n      sload\n      swap1\n      0x0100\n      exp\n      swap1\n      div\n      0xff\n      and\n      swap1\n      pop\n      dup3\n      jump\t// out\n        /* \"todolist.sol\":244:266  address public manager */\n    tag_16:\n      0x02\n      0x00\n      swap1\n      sload\n      swap1\n      0x0100\n      exp\n      swap1\n      div\n      0xffffffffffffffffffffffffffffffffffffffff\n      and\n      dup2\n      jump\t// out\n        /* \"todolist.sol\":770:889  function deleteTask(uint256 index) public restricted {\r... */\n    tag_21:\n        /* \"todolist.sol\":388:398  msg.sender */\n      caller\n        /* \"todolist.sol\":377:398  manager == msg.sender */\n      0xffffffffffffffffffffffffffffffffffffffff\n      and\n        /* \"todolist.sol\":377:384  manager */\n      0x02\n      0x00\n      swap1\n      sload\n      swap1\n      0x0100\n      exp\n      swap1\n      div\n      0xffffffffffffffffffffffffffffffffffffffff\n      and\n        /* \"todolist.sol\":377:398  manager == msg.sender */\n      0xffffffffffffffffffffffffffffffffffffffff\n      and\n      eq\n        /* \"todolist.sol\":369:399  require(manager == msg.sender) */\n      tag_40\n      jumpi\n      0x00\n      dup1\n      revert\n    tag_40:\n        /* \"todolist.sol\":841:849  taskToDo */\n      0x00\n        /* \"todolist.sol\":841:856  taskToDo[index] */\n      dup1\n        /* \"todolist.sol\":850:855  index */\n      dup3\n        /* \"todolist.sol\":841:856  taskToDo[index] */\n      dup2\n      mstore\n      0x20\n      add\n      swap1\n      dup2\n      mstore\n      0x20\n      add\n      0x00\n      keccak256\n      0x00\n        /* \"todolist.sol\":834:856  delete taskToDo[index] */\n      dup1\n      dup3\n      add\n      0x00\n      tag_42\n      swap2\n      swap1\n      tag_43\n      jump\t// in\n    tag_42:\n      0x01\n      dup3\n      add\n      exp(0x0100, 0x00)\n      dup2\n      sload\n      swap1\n      0xff\n      mul\n      not\n      and\n      swap1\n      sstore\n      pop\n      pop\n        /* \"todolist.sol\":867:879  numberOfTask */\n      0x01\n      0x00\n        /* \"todolist.sol\":867:881  numberOfTask-- */\n      dup2\n      sload\n      dup1\n      swap3\n      swap2\n      swap1\n      tag_44\n      swap1\n      tag_45\n      jump\t// in\n    tag_44:\n      swap2\n      swap1\n      pop\n      sstore\n      pop\n        /* \"todolist.sol\":770:889  function deleteTask(uint256 index) public restricted {\r... */\n      pop\n      jump\t// out\n        /* \"todolist.sol\":618:762  function markComplete(uint256 index) public restricted {\r... */\n    tag_24:\n        /* \"todolist.sol\":388:398  msg.sender */\n      caller\n        /* \"todolist.sol\":377:398  manager == msg.sender */\n      0xffffffffffffffffffffffffffffffffffffffff\n      and\n        /* \"todolist.sol\":377:384  manager */\n      0x02\n      0x00\n      swap1\n      sload\n      swap1\n      0x0100\n      exp\n      swap1\n      div\n      0xffffffffffffffffffffffffffffffffffffffff\n      and\n        /* \"todolist.sol\":377:398  manager == msg.sender */\n      0xffffffffffffffffffffffffffffffffffffffff\n      and\n      eq\n        /* \"todolist.sol\":369:399  require(manager == msg.sender) */\n      tag_47\n      jumpi\n      0x00\n      dup1\n      revert\n    tag_47:\n        /* \"todolist.sol\":684:704  Task storage oldTask */\n      0x00\n        /* \"todolist.sol\":707:715  taskToDo */\n      dup1\n        /* \"todolist.sol\":707:722  taskToDo[index] */\n      0x00\n        /* \"todolist.sol\":716:721  index */\n      dup4\n        /* \"todolist.sol\":707:722  taskToDo[index] */\n      dup2\n      mstore\n      0x20\n      add\n      swap1\n      dup2\n      mstore\n      0x20\n      add\n      0x00\n      keccak256\n        /* \"todolist.sol\":684:722  Task storage oldTask = taskToDo[index] */\n      swap1\n      pop\n        /* \"todolist.sol\":750:754  true */\n      0x01\n        /* \"todolist.sol\":733:740  oldTask */\n      dup2\n        /* \"todolist.sol\":733:747  oldTask.isDone */\n      0x01\n      add\n      0x00\n        /* \"todolist.sol\":733:754  oldTask.isDone = true */\n      0x0100\n      exp\n      dup2\n      sload\n      dup2\n      0xff\n      mul\n      not\n      and\n      swap1\n      dup4\n      iszero\n      iszero\n      mul\n      or\n      swap1\n      sstore\n      pop\n        /* \"todolist.sol\":410:411  _ */\n      pop\n        /* \"todolist.sol\":618:762  function markComplete(uint256 index) public restricted {\r... */\n      pop\n      jump\t// out\n        /* \"todolist.sol\":427:610  function create(string memory task) public restricted {\r... */\n    tag_28:\n        /* \"todolist.sol\":388:398  msg.sender */\n      caller\n        /* \"todolist.sol\":377:398  manager == msg.sender */\n      0xffffffffffffffffffffffffffffffffffffffff\n      and\n        /* \"todolist.sol\":377:384  manager */\n      0x02\n      0x00\n      swap1\n      sload\n      swap1\n      0x0100\n      exp\n      swap1\n      div\n      0xffffffffffffffffffffffffffffffffffffffff\n      and\n        /* \"todolist.sol\":377:398  manager == msg.sender */\n      0xffffffffffffffffffffffffffffffffffffffff\n      and\n      eq\n        /* \"todolist.sol\":369:399  require(manager == msg.sender) */\n      tag_50\n      jumpi\n      0x00\n      dup1\n      revert\n    tag_50:\n        /* \"todolist.sol\":492:512  Task storage newTask */\n      0x00\n        /* \"todolist.sol\":515:523  taskToDo */\n      dup1\n        /* \"todolist.sol\":515:539  taskToDo[numberOfTask++] */\n      0x00\n        /* \"todolist.sol\":524:536  numberOfTask */\n      0x01\n      0x00\n        /* \"todolist.sol\":524:538  numberOfTask++ */\n      dup2\n      sload\n      dup1\n      swap3\n      swap2\n      swap1\n      tag_52\n      swap1\n      tag_53\n      jump\t// in\n    tag_52:\n      swap2\n      swap1\n      pop\n      sstore\n        /* \"todolist.sol\":515:539  taskToDo[numberOfTask++] */\n      dup2\n      mstore\n      0x20\n      add\n      swap1\n      dup2\n      mstore\n      0x20\n      add\n      0x00\n      keccak256\n        /* \"todolist.sol\":492:539  Task storage newTask = taskToDo[numberOfTask++] */\n      swap1\n      pop\n        /* \"todolist.sol\":565:569  task */\n      dup2\n        /* \"todolist.sol\":550:557  newTask */\n      dup2\n        /* \"todolist.sol\":550:562  newTask.task */\n      0x00\n      add\n        /* \"todolist.sol\":550:569  newTask.task = task */\n      swap1\n      dup1\n      mload\n      swap1\n      0x20\n      add\n      swap1\n      tag_54\n      swap3\n      swap2\n      swap1\n      tag_55\n      jump\t// in\n    tag_54:\n      pop\n        /* \"todolist.sol\":597:602  false */\n      0x00\n        /* \"todolist.sol\":580:587  newTask */\n      dup2\n        /* \"todolist.sol\":580:594  newTask.isDone */\n      0x01\n      add\n      0x00\n        /* \"todolist.sol\":580:602  newTask.isDone = false */\n      0x0100\n      exp\n      dup2\n      sload\n      dup2\n      0xff\n      mul\n      not\n      and\n      swap1\n      dup4\n      iszero\n      iszero\n      mul\n      or\n      swap1\n      sstore\n      pop\n        /* \"todolist.sol\":410:411  _ */\n      pop\n        /* \"todolist.sol\":427:610  function create(string memory task) public restricted {\r... */\n      pop\n      jump\t// out\n        /* \"todolist.sol\":210:237  uint256 public numberOfTask */\n    tag_30:\n      sload(0x01)\n      dup2\n      jump\t// out\n    tag_43:\n      pop\n      dup1\n      sload\n      tag_56\n      swap1\n      tag_34\n      jump\t// in\n    tag_56:\n      0x00\n      dup3\n      sstore\n      dup1\n      0x1f\n      lt\n      tag_58\n      jumpi\n      pop\n      jump(tag_57)\n    tag_58:\n      0x1f\n      add\n      0x20\n      swap1\n      div\n      swap1\n      0x00\n      mstore\n      keccak256(0x00, 0x20)\n      swap1\n      dup2\n      add\n      swap1\n      tag_59\n      swap2\n      swap1\n      tag_60\n      jump\t// in\n    tag_59:\n    tag_57:\n      pop\n      jump\t// out\n    tag_55:\n      dup3\n      dup1\n      sload\n      tag_61\n      swap1\n      tag_34\n      jump\t// in\n    tag_61:\n      swap1\n      0x00\n      mstore\n      keccak256(0x00, 0x20)\n      swap1\n      0x1f\n      add\n      0x20\n      swap1\n      div\n      dup2\n      add\n      swap3\n      dup3\n      tag_63\n      jumpi\n      0x00\n      dup6\n      sstore\n      jump(tag_62)\n    tag_63:\n      dup3\n      0x1f\n      lt\n      tag_64\n      jumpi\n      dup1\n      mload\n      not(0xff)\n      and\n      dup4\n      dup1\n      add\n      or\n      dup6\n      sstore\n      jump(tag_62)\n    tag_64:\n      dup3\n      dup1\n      add\n      0x01\n      add\n      dup6\n      sstore\n      dup3\n      iszero\n      tag_62\n      jumpi\n      swap2\n      dup3\n      add\n    tag_65:\n      dup3\n      dup2\n      gt\n      iszero\n      tag_66\n      jumpi\n      dup3\n      mload\n      dup3\n      sstore\n      swap2\n      0x20\n      add\n      swap2\n      swap1\n      0x01\n      add\n      swap1\n      jump(tag_65)\n    tag_66:\n    tag_62:\n      pop\n      swap1\n      pop\n      tag_67\n      swap2\n      swap1\n      tag_60\n      jump\t// in\n    tag_67:\n      pop\n      swap1\n      jump\t// out\n    tag_60:\n    tag_68:\n      dup1\n      dup3\n      gt\n      iszero\n      tag_69\n      jumpi\n      0x00\n      dup2\n      0x00\n      swap1\n      sstore\n      pop\n      0x01\n      add\n      jump(tag_68)\n    tag_69:\n      pop\n      swap1\n      jump\t// out\n        /* \"#utility.yul\":7:351   */\n    tag_71:\n      0x00\n        /* \"#utility.yul\":110:175   */\n      tag_73\n        /* \"#utility.yul\":125:174   */\n      tag_74\n        /* \"#utility.yul\":167:173   */\n      dup5\n        /* \"#utility.yul\":125:174   */\n      tag_75\n      jump\t// in\n    tag_74:\n        /* \"#utility.yul\":110:175   */\n      tag_76\n      jump\t// in\n    tag_73:\n        /* \"#utility.yul\":101:175   */\n      swap1\n      pop\n        /* \"#utility.yul\":198:204   */\n      dup3\n        /* \"#utility.yul\":191:196   */\n      dup2\n        /* \"#utility.yul\":184:205   */\n      mstore\n        /* \"#utility.yul\":236:240   */\n      0x20\n        /* \"#utility.yul\":229:234   */\n      dup2\n        /* \"#utility.yul\":225:241   */\n      add\n        /* \"#utility.yul\":274:277   */\n      dup5\n        /* \"#utility.yul\":265:271   */\n      dup5\n        /* \"#utility.yul\":260:263   */\n      dup5\n        /* \"#utility.yul\":256:272   */\n      add\n        /* \"#utility.yul\":253:278   */\n      gt\n        /* \"#utility.yul\":250:252   */\n      iszero\n      tag_77\n      jumpi\n        /* \"#utility.yul\":291:292   */\n      0x00\n        /* \"#utility.yul\":288:289   */\n      dup1\n        /* \"#utility.yul\":281:293   */\n      revert\n        /* \"#utility.yul\":250:252   */\n    tag_77:\n        /* \"#utility.yul\":304:345   */\n      tag_78\n        /* \"#utility.yul\":338:344   */\n      dup5\n        /* \"#utility.yul\":333:336   */\n      dup3\n        /* \"#utility.yul\":328:331   */\n      dup6\n        /* \"#utility.yul\":304:345   */\n      tag_79\n      jump\t// in\n    tag_78:\n        /* \"#utility.yul\":91:351   */\n      pop\n      swap4\n      swap3\n      pop\n      pop\n      pop\n      jump\t// out\n        /* \"#utility.yul\":371:644   */\n    tag_80:\n      0x00\n        /* \"#utility.yul\":476:479   */\n      dup3\n        /* \"#utility.yul\":469:473   */\n      0x1f\n        /* \"#utility.yul\":461:467   */\n      dup4\n        /* \"#utility.yul\":457:474   */\n      add\n        /* \"#utility.yul\":453:480   */\n      slt\n        /* \"#utility.yul\":443:445   */\n      tag_82\n      jumpi\n        /* \"#utility.yul\":494:495   */\n      0x00\n        /* \"#utility.yul\":491:492   */\n      dup1\n        /* \"#utility.yul\":484:496   */\n      revert\n        /* \"#utility.yul\":443:445   */\n    tag_82:\n        /* \"#utility.yul\":534:540   */\n      dup2\n        /* \"#utility.yul\":521:541   */\n      calldataload\n        /* \"#utility.yul\":559:638   */\n      tag_83\n        /* \"#utility.yul\":634:637   */\n      dup5\n        /* \"#utility.yul\":626:632   */\n      dup3\n        /* \"#utility.yul\":619:623   */\n      0x20\n        /* \"#utility.yul\":611:617   */\n      dup7\n        /* \"#utility.yul\":607:624   */\n      add\n        /* \"#utility.yul\":559:638   */\n      tag_71\n      jump\t// in\n    tag_83:\n        /* \"#utility.yul\":550:638   */\n      swap2\n      pop\n        /* \"#utility.yul\":433:644   */\n      pop\n      swap3\n      swap2\n      pop\n      pop\n      jump\t// out\n        /* \"#utility.yul\":650:789   */\n    tag_84:\n      0x00\n        /* \"#utility.yul\":734:740   */\n      dup2\n        /* \"#utility.yul\":721:741   */\n      calldataload\n        /* \"#utility.yul\":712:741   */\n      swap1\n      pop\n        /* \"#utility.yul\":750:783   */\n      tag_86\n        /* \"#utility.yul\":777:782   */\n      dup2\n        /* \"#utility.yul\":750:783   */\n      tag_87\n      jump\t// in\n    tag_86:\n        /* \"#utility.yul\":702:789   */\n      swap3\n      swap2\n      pop\n      pop\n      jump\t// out\n        /* \"#utility.yul\":795:1170   */\n    tag_27:\n      0x00\n        /* \"#utility.yul\":913:915   */\n      0x20\n        /* \"#utility.yul\":901:910   */\n      dup3\n        /* \"#utility.yul\":892:899   */\n      dup5\n        /* \"#utility.yul\":888:911   */\n      sub\n        /* \"#utility.yul\":884:916   */\n      slt\n        /* \"#utility.yul\":881:883   */\n      iszero\n      tag_89\n      jumpi\n        /* \"#utility.yul\":929:930   */\n      0x00\n        /* \"#utility.yul\":926:927   */\n      dup1\n        /* \"#utility.yul\":919:931   */\n      revert\n        /* \"#utility.yul\":881:883   */\n    tag_89:\n        /* \"#utility.yul\":1000:1001   */\n      0x00\n        /* \"#utility.yul\":989:998   */\n      dup3\n        /* \"#utility.yul\":985:1002   */\n      add\n        /* \"#utility.yul\":972:1003   */\n      calldataload\n        /* \"#utility.yul\":1030:1048   */\n      0xffffffffffffffff\n        /* \"#utility.yul\":1022:1028   */\n      dup2\n        /* \"#utility.yul\":1019:1049   */\n      gt\n        /* \"#utility.yul\":1016:1018   */\n      iszero\n      tag_90\n      jumpi\n        /* \"#utility.yul\":1062:1063   */\n      0x00\n        /* \"#utility.yul\":1059:1060   */\n      dup1\n        /* \"#utility.yul\":1052:1064   */\n      revert\n        /* \"#utility.yul\":1016:1018   */\n    tag_90:\n        /* \"#utility.yul\":1090:1153   */\n      tag_91\n        /* \"#utility.yul\":1145:1152   */\n      dup5\n        /* \"#utility.yul\":1136:1142   */\n      dup3\n        /* \"#utility.yul\":1125:1134   */\n      dup6\n        /* \"#utility.yul\":1121:1143   */\n      add\n        /* \"#utility.yul\":1090:1153   */\n      tag_80\n      jump\t// in\n    tag_91:\n        /* \"#utility.yul\":1080:1153   */\n      swap2\n      pop\n        /* \"#utility.yul\":943:1163   */\n      pop\n        /* \"#utility.yul\":871:1170   */\n      swap3\n      swap2\n      pop\n      pop\n      jump\t// out\n        /* \"#utility.yul\":1176:1438   */\n    tag_11:\n      0x00\n        /* \"#utility.yul\":1284:1286   */\n      0x20\n        /* \"#utility.yul\":1272:1281   */\n      dup3\n        /* \"#utility.yul\":1263:1270   */\n      dup5\n        /* \"#utility.yul\":1259:1282   */\n      sub\n        /* \"#utility.yul\":1255:1287   */\n      slt\n        /* \"#utility.yul\":1252:1254   */\n      iszero\n      tag_93\n      jumpi\n        /* \"#utility.yul\":1300:1301   */\n      0x00\n        /* \"#utility.yul\":1297:1298   */\n      dup1\n        /* \"#utility.yul\":1290:1302   */\n      revert\n        /* \"#utility.yul\":1252:1254   */\n    tag_93:\n        /* \"#utility.yul\":1343:1344   */\n      0x00\n        /* \"#utility.yul\":1368:1421   */\n      tag_94\n        /* \"#utility.yul\":1413:1420   */\n      dup5\n        /* \"#utility.yul\":1404:1410   */\n      dup3\n        /* \"#utility.yul\":1393:1402   */\n      dup6\n        /* \"#utility.yul\":1389:1411   */\n      add\n        /* \"#utility.yul\":1368:1421   */\n      tag_84\n      jump\t// in\n    tag_94:\n        /* \"#utility.yul\":1358:1421   */\n      swap2\n      pop\n        /* \"#utility.yul\":1314:1431   */\n      pop\n        /* \"#utility.yul\":1242:1438   */\n      swap3\n      swap2\n      pop\n      pop\n      jump\t// out\n        /* \"#utility.yul\":1444:1562   */\n    tag_95:\n        /* \"#utility.yul\":1531:1555   */\n      tag_97\n        /* \"#utility.yul\":1549:1554   */\n      dup2\n        /* \"#utility.yul\":1531:1555   */\n      tag_98\n      jump\t// in\n    tag_97:\n        /* \"#utility.yul\":1526:1529   */\n      dup3\n        /* \"#utility.yul\":1519:1556   */\n      mstore\n        /* \"#utility.yul\":1509:1562   */\n      pop\n      pop\n      jump\t// out\n        /* \"#utility.yul\":1568:1677   */\n    tag_99:\n        /* \"#utility.yul\":1649:1670   */\n      tag_101\n        /* \"#utility.yul\":1664:1669   */\n      dup2\n        /* \"#utility.yul\":1649:1670   */\n      tag_102\n      jump\t// in\n    tag_101:\n        /* \"#utility.yul\":1644:1647   */\n      dup3\n        /* \"#utility.yul\":1637:1671   */\n      mstore\n        /* \"#utility.yul\":1627:1677   */\n      pop\n      pop\n      jump\t// out\n        /* \"#utility.yul\":1683:2047   */\n    tag_103:\n      0x00\n        /* \"#utility.yul\":1799:1838   */\n      tag_105\n        /* \"#utility.yul\":1832:1837   */\n      dup3\n        /* \"#utility.yul\":1799:1838   */\n      tag_106\n      jump\t// in\n    tag_105:\n        /* \"#utility.yul\":1854:1925   */\n      tag_107\n        /* \"#utility.yul\":1918:1924   */\n      dup2\n        /* \"#utility.yul\":1913:1916   */\n      dup6\n        /* \"#utility.yul\":1854:1925   */\n      tag_108\n      jump\t// in\n    tag_107:\n        /* \"#utility.yul\":1847:1925   */\n      swap4\n      pop\n        /* \"#utility.yul\":1934:1986   */\n      tag_109\n        /* \"#utility.yul\":1979:1985   */\n      dup2\n        /* \"#utility.yul\":1974:1977   */\n      dup6\n        /* \"#utility.yul\":1967:1971   */\n      0x20\n        /* \"#utility.yul\":1960:1965   */\n      dup7\n        /* \"#utility.yul\":1956:1972   */\n      add\n        /* \"#utility.yul\":1934:1986   */\n      tag_110\n      jump\t// in\n    tag_109:\n        /* \"#utility.yul\":2011:2040   */\n      tag_111\n        /* \"#utility.yul\":2033:2039   */\n      dup2\n        /* \"#utility.yul\":2011:2040   */\n      tag_112\n      jump\t// in\n    tag_111:\n        /* \"#utility.yul\":2006:2009   */\n      dup5\n        /* \"#utility.yul\":2002:2041   */\n      add\n        /* \"#utility.yul\":1995:2041   */\n      swap2\n      pop\n        /* \"#utility.yul\":1775:2047   */\n      pop\n      swap3\n      swap2\n      pop\n      pop\n      jump\t// out\n        /* \"#utility.yul\":2053:2171   */\n    tag_113:\n        /* \"#utility.yul\":2140:2164   */\n      tag_115\n        /* \"#utility.yul\":2158:2163   */\n      dup2\n        /* \"#utility.yul\":2140:2164   */\n      tag_116\n      jump\t// in\n    tag_115:\n        /* \"#utility.yul\":2135:2138   */\n      dup3\n        /* \"#utility.yul\":2128:2165   */\n      mstore\n        /* \"#utility.yul\":2118:2171   */\n      pop\n      pop\n      jump\t// out\n        /* \"#utility.yul\":2177:2399   */\n    tag_18:\n      0x00\n        /* \"#utility.yul\":2308:2310   */\n      0x20\n        /* \"#utility.yul\":2297:2306   */\n      dup3\n        /* \"#utility.yul\":2293:2311   */\n      add\n        /* \"#utility.yul\":2285:2311   */\n      swap1\n      pop\n        /* \"#utility.yul\":2321:2392   */\n      tag_118\n        /* \"#utility.yul\":2389:2390   */\n      0x00\n        /* \"#utility.yul\":2378:2387   */\n      dup4\n        /* \"#utility.yul\":2374:2391   */\n      add\n        /* \"#utility.yul\":2365:2371   */\n      dup5\n        /* \"#utility.yul\":2321:2392   */\n      tag_95\n      jump\t// in\n    tag_118:\n        /* \"#utility.yul\":2275:2399   */\n      swap3\n      swap2\n      pop\n      pop\n      jump\t// out\n        /* \"#utility.yul\":2405:2816   */\n    tag_14:\n      0x00\n        /* \"#utility.yul\":2578:2580   */\n      0x40\n        /* \"#utility.yul\":2567:2576   */\n      dup3\n        /* \"#utility.yul\":2563:2581   */\n      add\n        /* \"#utility.yul\":2555:2581   */\n      swap1\n      pop\n        /* \"#utility.yul\":2627:2636   */\n      dup2\n        /* \"#utility.yul\":2621:2625   */\n      dup2\n        /* \"#utility.yul\":2617:2637   */\n      sub\n        /* \"#utility.yul\":2613:2614   */\n      0x00\n        /* \"#utility.yul\":2602:2611   */\n      dup4\n        /* \"#utility.yul\":2598:2615   */\n      add\n        /* \"#utility.yul\":2591:2638   */\n      mstore\n        /* \"#utility.yul\":2655:2733   */\n      tag_120\n        /* \"#utility.yul\":2728:2732   */\n      dup2\n        /* \"#utility.yul\":2719:2725   */\n      dup6\n        /* \"#utility.yul\":2655:2733   */\n      tag_103\n      jump\t// in\n    tag_120:\n        /* \"#utility.yul\":2647:2733   */\n      swap1\n      pop\n        /* \"#utility.yul\":2743:2809   */\n      tag_121\n        /* \"#utility.yul\":2805:2807   */\n      0x20\n        /* \"#utility.yul\":2794:2803   */\n      dup4\n        /* \"#utility.yul\":2790:2808   */\n      add\n        /* \"#utility.yul\":2781:2787   */\n      dup5\n        /* \"#utility.yul\":2743:2809   */\n      tag_99\n      jump\t// in\n    tag_121:\n        /* \"#utility.yul\":2545:2816   */\n      swap4\n      swap3\n      pop\n      pop\n      pop\n      jump\t// out\n        /* \"#utility.yul\":2822:3044   */\n    tag_32:\n      0x00\n        /* \"#utility.yul\":2953:2955   */\n      0x20\n        /* \"#utility.yul\":2942:2951   */\n      dup3\n        /* \"#utility.yul\":2938:2956   */\n      add\n        /* \"#utility.yul\":2930:2956   */\n      swap1\n      pop\n        /* \"#utility.yul\":2966:3037   */\n      tag_123\n        /* \"#utility.yul\":3034:3035   */\n      0x00\n        /* \"#utility.yul\":3023:3032   */\n      dup4\n        /* \"#utility.yul\":3019:3036   */\n      add\n        /* \"#utility.yul\":3010:3016   */\n      dup5\n        /* \"#utility.yul\":2966:3037   */\n      tag_113\n      jump\t// in\n    tag_123:\n        /* \"#utility.yul\":2920:3044   */\n      swap3\n      swap2\n      pop\n      pop\n      jump\t// out\n        /* \"#utility.yul\":3050:3333   */\n    tag_76:\n      0x00\n        /* \"#utility.yul\":3116:3118   */\n      0x40\n        /* \"#utility.yul\":3110:3119   */\n      mload\n        /* \"#utility.yul\":3100:3119   */\n      swap1\n      pop\n        /* \"#utility.yul\":3158:3162   */\n      dup2\n        /* \"#utility.yul\":3150:3156   */\n      dup2\n        /* \"#utility.yul\":3146:3163   */\n      add\n        /* \"#utility.yul\":3265:3271   */\n      dup2\n        /* \"#utility.yul\":3253:3263   */\n      dup2\n        /* \"#utility.yul\":3250:3272   */\n      lt\n        /* \"#utility.yul\":3229:3247   */\n      0xffffffffffffffff\n        /* \"#utility.yul\":3217:3227   */\n      dup3\n        /* \"#utility.yul\":3214:3248   */\n      gt\n        /* \"#utility.yul\":3211:3273   */\n      or\n        /* \"#utility.yul\":3208:3210   */\n      iszero\n      tag_125\n      jumpi\n        /* \"#utility.yul\":3276:3294   */\n      tag_126\n      tag_127\n      jump\t// in\n    tag_126:\n        /* \"#utility.yul\":3208:3210   */\n    tag_125:\n        /* \"#utility.yul\":3316:3326   */\n      dup1\n        /* \"#utility.yul\":3312:3314   */\n      0x40\n        /* \"#utility.yul\":3305:3327   */\n      mstore\n        /* \"#utility.yul\":3090:3333   */\n      pop\n      swap2\n      swap1\n      pop\n      jump\t// out\n        /* \"#utility.yul\":3339:3671   */\n    tag_75:\n      0x00\n        /* \"#utility.yul\":3491:3509   */\n      0xffffffffffffffff\n        /* \"#utility.yul\":3483:3489   */\n      dup3\n        /* \"#utility.yul\":3480:3510   */\n      gt\n        /* \"#utility.yul\":3477:3479   */\n      iszero\n      tag_129\n      jumpi\n        /* \"#utility.yul\":3513:3531   */\n      tag_130\n      tag_127\n      jump\t// in\n    tag_130:\n        /* \"#utility.yul\":3477:3479   */\n    tag_129:\n        /* \"#utility.yul\":3598:3602   */\n      0x1f\n        /* \"#utility.yul\":3594:3603   */\n      not\n        /* \"#utility.yul\":3587:3591   */\n      0x1f\n        /* \"#utility.yul\":3579:3585   */\n      dup4\n        /* \"#utility.yul\":3575:3592   */\n      add\n        /* \"#utility.yul\":3571:3604   */\n      and\n        /* \"#utility.yul\":3563:3604   */\n      swap1\n      pop\n        /* \"#utility.yul\":3659:3663   */\n      0x20\n        /* \"#utility.yul\":3653:3657   */\n      dup2\n        /* \"#utility.yul\":3649:3664   */\n      add\n        /* \"#utility.yul\":3641:3664   */\n      swap1\n      pop\n        /* \"#utility.yul\":3406:3671   */\n      swap2\n      swap1\n      pop\n      jump\t// out\n        /* \"#utility.yul\":3677:3776   */\n    tag_106:\n      0x00\n        /* \"#utility.yul\":3763:3768   */\n      dup2\n        /* \"#utility.yul\":3757:3769   */\n      mload\n        /* \"#utility.yul\":3747:3769   */\n      swap1\n      pop\n        /* \"#utility.yul\":3736:3776   */\n      swap2\n      swap1\n      pop\n      jump\t// out\n        /* \"#utility.yul\":3782:3951   */\n    tag_108:\n      0x00\n        /* \"#utility.yul\":3900:3906   */\n      dup3\n        /* \"#utility.yul\":3895:3898   */\n      dup3\n        /* \"#utility.yul\":3888:3907   */\n      mstore\n        /* \"#utility.yul\":3940:3944   */\n      0x20\n        /* \"#utility.yul\":3935:3938   */\n      dup3\n        /* \"#utility.yul\":3931:3945   */\n      add\n        /* \"#utility.yul\":3916:3945   */\n      swap1\n      pop\n        /* \"#utility.yul\":3878:3951   */\n      swap3\n      swap2\n      pop\n      pop\n      jump\t// out\n        /* \"#utility.yul\":3957:4053   */\n    tag_98:\n      0x00\n        /* \"#utility.yul\":4023:4047   */\n      tag_134\n        /* \"#utility.yul\":4041:4046   */\n      dup3\n        /* \"#utility.yul\":4023:4047   */\n      tag_135\n      jump\t// in\n    tag_134:\n        /* \"#utility.yul\":4012:4047   */\n      swap1\n      pop\n        /* \"#utility.yul\":4002:4053   */\n      swap2\n      swap1\n      pop\n      jump\t// out\n        /* \"#utility.yul\":4059:4149   */\n    tag_102:\n      0x00\n        /* \"#utility.yul\":4136:4141   */\n      dup2\n        /* \"#utility.yul\":4129:4142   */\n      iszero\n        /* \"#utility.yul\":4122:4143   */\n      iszero\n        /* \"#utility.yul\":4111:4143   */\n      swap1\n      pop\n        /* \"#utility.yul\":4101:4149   */\n      swap2\n      swap1\n      pop\n      jump\t// out\n        /* \"#utility.yul\":4155:4281   */\n    tag_135:\n      0x00\n        /* \"#utility.yul\":4232:4274   */\n      0xffffffffffffffffffffffffffffffffffffffff\n        /* \"#utility.yul\":4225:4230   */\n      dup3\n        /* \"#utility.yul\":4221:4275   */\n      and\n        /* \"#utility.yul\":4210:4275   */\n      swap1\n      pop\n        /* \"#utility.yul\":4200:4281   */\n      swap2\n      swap1\n      pop\n      jump\t// out\n        /* \"#utility.yul\":4287:4364   */\n    tag_116:\n      0x00\n        /* \"#utility.yul\":4353:4358   */\n      dup2\n        /* \"#utility.yul\":4342:4358   */\n      swap1\n      pop\n        /* \"#utility.yul\":4332:4364   */\n      swap2\n      swap1\n      pop\n      jump\t// out\n        /* \"#utility.yul\":4370:4524   */\n    tag_79:\n        /* \"#utility.yul\":4454:4460   */\n      dup3\n        /* \"#utility.yul\":4449:4452   */\n      dup2\n        /* \"#utility.yul\":4444:4447   */\n      dup4\n        /* \"#utility.yul\":4431:4461   */\n      calldatacopy\n        /* \"#utility.yul\":4516:4517   */\n      0x00\n        /* \"#utility.yul\":4507:4513   */\n      dup4\n        /* \"#utility.yul\":4502:4505   */\n      dup4\n        /* \"#utility.yul\":4498:4514   */\n      add\n        /* \"#utility.yul\":4491:4518   */\n      mstore\n        /* \"#utility.yul\":4421:4524   */\n      pop\n      pop\n      pop\n      jump\t// out\n        /* \"#utility.yul\":4530:4837   */\n    tag_110:\n        /* \"#utility.yul\":4598:4599   */\n      0x00\n        /* \"#utility.yul\":4608:4721   */\n    tag_141:\n        /* \"#utility.yul\":4622:4628   */\n      dup4\n        /* \"#utility.yul\":4619:4620   */\n      dup2\n        /* \"#utility.yul\":4616:4629   */\n      lt\n        /* \"#utility.yul\":4608:4721   */\n      iszero\n      tag_143\n      jumpi\n        /* \"#utility.yul\":4707:4708   */\n      dup1\n        /* \"#utility.yul\":4702:4705   */\n      dup3\n        /* \"#utility.yul\":4698:4709   */\n      add\n        /* \"#utility.yul\":4692:4710   */\n      mload\n        /* \"#utility.yul\":4688:4689   */\n      dup2\n        /* \"#utility.yul\":4683:4686   */\n      dup5\n        /* \"#utility.yul\":4679:4690   */\n      add\n        /* \"#utility.yul\":4672:4711   */\n      mstore\n        /* \"#utility.yul\":4644:4646   */\n      0x20\n        /* \"#utility.yul\":4641:4642   */\n      dup2\n        /* \"#utility.yul\":4637:4647   */\n      add\n        /* \"#utility.yul\":4632:4647   */\n      swap1\n      pop\n        /* \"#utility.yul\":4608:4721   */\n      jump(tag_141)\n    tag_143:\n        /* \"#utility.yul\":4739:4745   */\n      dup4\n        /* \"#utility.yul\":4736:4737   */\n      dup2\n        /* \"#utility.yul\":4733:4746   */\n      gt\n        /* \"#utility.yul\":4730:4732   */\n      iszero\n      tag_144\n      jumpi\n        /* \"#utility.yul\":4819:4820   */\n      0x00\n        /* \"#utility.yul\":4810:4816   */\n      dup5\n        /* \"#utility.yul\":4805:4808   */\n      dup5\n        /* \"#utility.yul\":4801:4817   */\n      add\n        /* \"#utility.yul\":4794:4821   */\n      mstore\n        /* \"#utility.yul\":4730:4732   */\n    tag_144:\n        /* \"#utility.yul\":4579:4837   */\n      pop\n      pop\n      pop\n      pop\n      jump\t// out\n        /* \"#utility.yul\":4843:5014   */\n    tag_45:\n      0x00\n        /* \"#utility.yul\":4905:4929   */\n      tag_146\n        /* \"#utility.yul\":4923:4928   */\n      dup3\n        /* \"#utility.yul\":4905:4929   */\n      tag_116\n      jump\t// in\n    tag_146:\n        /* \"#utility.yul\":4896:4929   */\n      swap2\n      pop\n        /* \"#utility.yul\":4951:4955   */\n      0x00\n        /* \"#utility.yul\":4944:4949   */\n      dup3\n        /* \"#utility.yul\":4941:4956   */\n      eq\n        /* \"#utility.yul\":4938:4940   */\n      iszero\n      tag_147\n      jumpi\n        /* \"#utility.yul\":4959:4977   */\n      tag_148\n      tag_149\n      jump\t// in\n    tag_148:\n        /* \"#utility.yul\":4938:4940   */\n    tag_147:\n        /* \"#utility.yul\":5006:5007   */\n      0x01\n        /* \"#utility.yul\":4999:5004   */\n      dup3\n        /* \"#utility.yul\":4995:5008   */\n      sub\n        /* \"#utility.yul\":4988:5008   */\n      swap1\n      pop\n        /* \"#utility.yul\":4886:5014   */\n      swap2\n      swap1\n      pop\n      jump\t// out\n        /* \"#utility.yul\":5020:5340   */\n    tag_34:\n      0x00\n        /* \"#utility.yul\":5101:5102   */\n      0x02\n        /* \"#utility.yul\":5095:5099   */\n      dup3\n        /* \"#utility.yul\":5091:5103   */\n      div\n        /* \"#utility.yul\":5081:5103   */\n      swap1\n      pop\n        /* \"#utility.yul\":5148:5149   */\n      0x01\n        /* \"#utility.yul\":5142:5146   */\n      dup3\n        /* \"#utility.yul\":5138:5150   */\n      and\n        /* \"#utility.yul\":5169:5187   */\n      dup1\n        /* \"#utility.yul\":5159:5161   */\n      tag_151\n      jumpi\n        /* \"#utility.yul\":5225:5229   */\n      0x7f\n        /* \"#utility.yul\":5217:5223   */\n      dup3\n        /* \"#utility.yul\":5213:5230   */\n      and\n        /* \"#utility.yul\":5203:5230   */\n      swap2\n      pop\n        /* \"#utility.yul\":5159:5161   */\n    tag_151:\n        /* \"#utility.yul\":5287:5289   */\n      0x20\n        /* \"#utility.yul\":5279:5285   */\n      dup3\n        /* \"#utility.yul\":5276:5290   */\n      lt\n        /* \"#utility.yul\":5256:5274   */\n      dup2\n        /* \"#utility.yul\":5253:5291   */\n      eq\n        /* \"#utility.yul\":5250:5252   */\n      iszero\n      tag_152\n      jumpi\n        /* \"#utility.yul\":5306:5324   */\n      tag_153\n      tag_154\n      jump\t// in\n    tag_153:\n        /* \"#utility.yul\":5250:5252   */\n    tag_152:\n        /* \"#utility.yul\":5071:5340   */\n      pop\n      swap2\n      swap1\n      pop\n      jump\t// out\n        /* \"#utility.yul\":5346:5579   */\n    tag_53:\n      0x00\n        /* \"#utility.yul\":5408:5432   */\n      tag_156\n        /* \"#utility.yul\":5426:5431   */\n      dup3\n        /* \"#utility.yul\":5408:5432   */\n      tag_116\n      jump\t// in\n    tag_156:\n        /* \"#utility.yul\":5399:5432   */\n      swap2\n      pop\n        /* \"#utility.yul\":5454:5520   */\n      0xffffffffffffffffffffffffffffffffffffffffffffffffffffffffffffffff\n        /* \"#utility.yul\":5447:5452   */\n      dup3\n        /* \"#utility.yul\":5444:5521   */\n      eq\n        /* \"#utility.yul\":5441:5443   */\n      iszero\n      tag_157\n      jumpi\n        /* \"#utility.yul\":5524:5542   */\n      tag_158\n      tag_149\n      jump\t// in\n    tag_158:\n        /* \"#utility.yul\":5441:5443   */\n    tag_157:\n        /* \"#utility.yul\":5571:5572   */\n      0x01\n        /* \"#utility.yul\":5564:5569   */\n      dup3\n        /* \"#utility.yul\":5560:5573   */\n      add\n        /* \"#utility.yul\":5553:5573   */\n      swap1\n      pop\n        /* \"#utility.yul\":5389:5579   */\n      swap2\n      swap1\n      pop\n      jump\t// out\n        /* \"#utility.yul\":5585:5765   */\n    tag_149:\n        /* \"#utility.yul\":5633:5710   */\n      0x4e487b7100000000000000000000000000000000000000000000000000000000\n        /* \"#utility.yul\":5630:5631   */\n      0x00\n        /* \"#utility.yul\":5623:5711   */\n      mstore\n        /* \"#utility.yul\":5730:5734   */\n      0x11\n        /* \"#utility.yul\":5727:5728   */\n      0x04\n        /* \"#utility.yul\":5720:5735   */\n      mstore\n        /* \"#utility.yul\":5754:5758   */\n      0x24\n        /* \"#utility.yul\":5751:5752   */\n      0x00\n        /* \"#utility.yul\":5744:5759   */\n      revert\n        /* \"#utility.yul\":5771:5951   */\n    tag_154:\n        /* \"#utility.yul\":5819:5896   */\n      0x4e487b7100000000000000000000000000000000000000000000000000000000\n        /* \"#utility.yul\":5816:5817   */\n      0x00\n        /* \"#utility.yul\":5809:5897   */\n      mstore\n        /* \"#utility.yul\":5916:5920   */\n      0x22\n        /* \"#utility.yul\":5913:5914   */\n      0x04\n        /* \"#utility.yul\":5906:5921   */\n      mstore\n        /* \"#utility.yul\":5940:5944   */\n      0x24\n        /* \"#utility.yul\":5937:5938   */\n      0x00\n        /* \"#utility.yul\":5930:5945   */\n      revert\n        /* \"#utility.yul\":5957:6137   */\n    tag_127:\n        /* \"#utility.yul\":6005:6082   */\n      0x4e487b7100000000000000000000000000000000000000000000000000000000\n        /* \"#utility.yul\":6002:6003   */\n      0x00\n        /* \"#utility.yul\":5995:6083   */\n      mstore\n        /* \"#utility.yul\":6102:6106   */\n      0x41\n        /* \"#utility.yul\":6099:6100   */\n      0x04\n        /* \"#utility.yul\":6092:6107   */\n      mstore\n        /* \"#utility.yul\":6126:6130   */\n      0x24\n        /* \"#utility.yul\":6123:6124   */\n      0x00\n        /* \"#utility.yul\":6116:6131   */\n      revert\n        /* \"#utility.yul\":6143:6245   */\n    tag_112:\n      0x00\n        /* \"#utility.yul\":6235:6237   */\n      0x1f\n        /* \"#utility.yul\":6231:6238   */\n      not\n        /* \"#utility.yul\":6226:6228   */\n      0x1f\n        /* \"#utility.yul\":6219:6224   */\n      dup4\n        /* \"#utility.yul\":6215:6229   */\n      add\n        /* \"#utility.yul\":6211:6239   */\n      and\n        /* \"#utility.yul\":6201:6239   */\n      swap1\n      pop\n        /* \"#utility.yul\":6191:6245   */\n      swap2\n      swap1\n      pop\n      jump\t// out\n        /* \"#utility.yul\":6251:6373   */\n    tag_87:\n        /* \"#utility.yul\":6324:6348   */\n      tag_164\n        /* \"#utility.yul\":6342:6347   */\n      dup2\n        /* \"#utility.yul\":6324:6348   */\n      tag_116\n      jump\t// in\n    tag_164:\n        /* \"#utility.yul\":6317:6322   */\n      dup2\n        /* \"#utility.yul\":6314:6349   */\n      eq\n        /* \"#utility.yul\":6304:6306   */\n      tag_165\n      jumpi\n        /* \"#utility.yul\":6363:6364   */\n      0x00\n        /* \"#utility.yul\":6360:6361   */\n      dup1\n        /* \"#utility.yul\":6353:6365   */\n      revert\n        /* \"#utility.yul\":6304:6306   */\n    tag_165:\n        /* \"#utility.yul\":6294:6373   */\n      pop\n      jump\t// out\n\n    auxdata: 0xa2646970667358221220c977d0d7d821f4c62e77def8b26a9c55a6800991a915a1bfcf2655723d35e5c064736f6c63430008000033\n}\n","bytecode":{"linkReferences":{},"object":"608060405234801561001057600080fd5b5033600260006101000a81548173ffffffffffffffffffffffffffffffffffffffff021916908373ffffffffffffffffffffffffffffffffffffffff160217905550610939806100616000396000f3fe608060405234801561001057600080fd5b50600436106100625760003560e01c8063062ffdff14610067578063481c6a7514610098578063560f3192146100b657806367067ed6146100d2578063b6a46b3b146100ee578063fc8d03741461010a575b600080fd5b610081600480360381019061007c91906105ad565b610128565b60405161008f929190610657565b60405180910390f35b6100a06101e1565b6040516100ad919061063c565b60405180910390f35b6100d060048036038101906100cb91906105ad565b610207565b005b6100ec60048036038101906100e791906105ad565b6102b5565b005b6101086004803603810190610103919061056c565b610346565b005b610112610406565b60405161011f9190610687565b60405180910390f35b600060205280600052604060002060009150905080600001805461014b906107d3565b80601f0160208091040260200160405190810160405280929190818152602001828054610177906107d3565b80156101c45780601f10610199576101008083540402835291602001916101c4565b820191906000526020600020905b8154815290600101906020018083116101a757829003601f168201915b5050505050908060010160009054906101000a900460ff16905082565b600260009054906101000a900473ffffffffffffffffffffffffffffffffffffffff1681565b3373ffffffffffffffffffffffffffffffffffffffff16600260009054906101000a900473ffffffffffffffffffffffffffffffffffffffff1673ffffffffffffffffffffffffffffffffffffffff161461026157600080fd5b60008082815260200190815260200160002060008082016000610284919061040c565b6001820160006101000a81549060ff02191690555050600160008154809291906102ad906107a9565b919050555050565b3373ffffffffffffffffffffffffffffffffffffffff16600260009054906101000a900473ffffffffffffffffffffffffffffffffffffffff1673ffffffffffffffffffffffffffffffffffffffff161461030f57600080fd5b6000806000838152602001908152602001600020905060018160010160006101000a81548160ff0219169083151502179055505050565b3373ffffffffffffffffffffffffffffffffffffffff16600260009054906101000a900473ffffffffffffffffffffffffffffffffffffffff1673ffffffffffffffffffffffffffffffffffffffff16146103a057600080fd5b6000806000600160008154809291906103b890610805565b9190505581526020019081526020016000209050818160000190805190602001906103e492919061044c565b5060008160010160006101000a81548160ff0219169083151502179055505050565b60015481565b508054610418906107d3565b6000825580601f1061042a5750610449565b601f01602090049060005260206000209081019061044891906104d2565b5b50565b828054610458906107d3565b90600052602060002090601f01602090048101928261047a57600085556104c1565b82601f1061049357805160ff19168380011785556104c1565b828001600101855582156104c1579182015b828111156104c05782518255916020019190600101906104a5565b5b5090506104ce91906104d2565b5090565b5b808211156104eb5760008160009055506001016104d3565b5090565b60006105026104fd846106d3565b6106a2565b90508281526020810184848401111561051a57600080fd5b610525848285610767565b509392505050565b600082601f83011261053e57600080fd5b813561054e8482602086016104ef565b91505092915050565b600081359050610566816108ec565b92915050565b60006020828403121561057e57600080fd5b600082013567ffffffffffffffff81111561059857600080fd5b6105a48482850161052d565b91505092915050565b6000602082840312156105bf57600080fd5b60006105cd84828501610557565b91505092915050565b6105df8161071f565b82525050565b6105ee81610731565b82525050565b60006105ff82610703565b610609818561070e565b9350610619818560208601610776565b610622816108db565b840191505092915050565b6106368161075d565b82525050565b600060208201905061065160008301846105d6565b92915050565b6000604082019050818103600083015261067181856105f4565b905061068060208301846105e5565b9392505050565b600060208201905061069c600083018461062d565b92915050565b6000604051905081810181811067ffffffffffffffff821117156106c9576106c86108ac565b5b8060405250919050565b600067ffffffffffffffff8211156106ee576106ed6108ac565b5b601f19601f8301169050602081019050919050565b600081519050919050565b600082825260208201905092915050565b600061072a8261073d565b9050919050565b60008115159050919050565b600073ffffffffffffffffffffffffffffffffffffffff82169050919050565b6000819050919050565b82818337600083830152505050565b60005b83811015610794578082015181840152602081019050610779565b838111156107a3576000848401525b50505050565b60006107b48261075d565b915060008214156107c8576107c761084e565b5b600182039050919050565b600060028204905060018216806107eb57607f821691505b602082108114156107ff576107fe61087d565b5b50919050565b60006108108261075d565b91507fffffffffffffffffffffffffffffffffffffffffffffffffffffffffffffffff8214156108435761084261084e565b5b600182019050919050565b7f4e487b7100000000000000000000000000000000000000000000000000000000600052601160045260246000fd5b7f4e487b7100000000000000000000000000000000000000000000000000000000600052602260045260246000fd5b7f4e487b7100000000000000000000000000000000000000000000000000000000600052604160045260246000fd5b6000601f19601f8301169050919050565b6108f58161075d565b811461090057600080fd5b5056fea2646970667358221220c977d0d7d821f4c62e77def8b26a9c55a6800991a915a1bfcf2655723d35e5c064736f6c63430008000033","opcodes":"PUSH1 0x80 PUSH1 0x40 MSTORE CALLVALUE DUP1 ISZERO PUSH2 0x10 JUMPI PUSH1 0x0 DUP1 REVERT JUMPDEST POP CALLER PUSH1 0x2 PUSH1 0x0 PUSH2 0x100 EXP DUP2 SLOAD DUP2 PUSH20 0xFFFFFFFFFFFFFFFFFFFFFFFFFFFFFFFFFFFFFFFF MUL NOT AND SWAP1 DUP4 PUSH20 0xFFFFFFFFFFFFFFFFFFFFFFFFFFFFFFFFFFFFFFFF AND MUL OR SWAP1 SSTORE POP PUSH2 0x939 DUP1 PUSH2 0x61 PUSH1 0x0 CODECOPY PUSH1 0x0 RETURN INVALID PUSH1 0x80 PUSH1 0x40 MSTORE CALLVALUE DUP1 ISZERO PUSH2 0x10 JUMPI PUSH1 0x0 DUP1 REVERT JUMPDEST POP PUSH1 0x4 CALLDATASIZE LT PUSH2 0x62 JUMPI PUSH1 0x0 CALLDATALOAD PUSH1 0xE0 SHR DUP1 PUSH4 0x62FFDFF EQ PUSH2 0x67 JUMPI DUP1 PUSH4 0x481C6A75 EQ PUSH2 0x98 JUMPI DUP1 PUSH4 0x560F3192 EQ PUSH2 0xB6 JUMPI DUP1 PUSH4 0x67067ED6 EQ PUSH2 0xD2 JUMPI DUP1 PUSH4 0xB6A46B3B EQ PUSH2 0xEE JUMPI DUP1 PUSH4 0xFC8D0374 EQ PUSH2 0x10A JUMPI JUMPDEST PUSH1 0x0 DUP1 REVERT JUMPDEST PUSH2 0x81 PUSH1 0x4 DUP1 CALLDATASIZE SUB DUP2 ADD SWAP1 PUSH2 0x7C SWAP2 SWAP1 PUSH2 0x5AD JUMP JUMPDEST PUSH2 0x128 JUMP JUMPDEST PUSH1 0x40 MLOAD PUSH2 0x8F SWAP3 SWAP2 SWAP1 PUSH2 0x657 JUMP JUMPDEST PUSH1 0x40 MLOAD DUP1 SWAP2 SUB SWAP1 RETURN JUMPDEST PUSH2 0xA0 PUSH2 0x1E1 JUMP JUMPDEST PUSH1 0x40 MLOAD PUSH2 0xAD SWAP2 SWAP1 PUSH2 0x63C JUMP JUMPDEST PUSH1 0x40 MLOAD DUP1 SWAP2 SUB SWAP1 RETURN JUMPDEST PUSH2 0xD0 PUSH1 0x4 DUP1 CALLDATASIZE SUB DUP2 ADD SWAP1 PUSH2 0xCB SWAP2 SWAP1 PUSH2 0x5AD JUMP JUMPDEST PUSH2 0x207 JUMP JUMPDEST STOP JUMPDEST PUSH2 0xEC PUSH1 0x4 DUP1 CALLDATASIZE SUB DUP2 ADD SWAP1 PUSH2 0xE7 SWAP2 SWAP1 PUSH2 0x5AD JUMP JUMPDEST PUSH2 0x2B5 JUMP JUMPDEST STOP JUMPDEST PUSH2 0x108 PUSH1 0x4 DUP1 CALLDATASIZE SUB DUP2 ADD SWAP1 PUSH2 0x103 SWAP2 SWAP1 PUSH2 0x56C JUMP JUMPDEST PUSH2 0x346 JUMP JUMPDEST STOP JUMPDEST PUSH2 0x112 PUSH2 0x406 JUMP JUMPDEST PUSH1 0x40 MLOAD PUSH2 0x11F SWAP2 SWAP1 PUSH2 0x687 JUMP JUMPDEST PUSH1 0x40 MLOAD DUP1 SWAP2 SUB SWAP1 RETURN JUMPDEST PUSH1 0x0 PUSH1 0x20 MSTORE DUP1 PUSH1 0x0 MSTORE PUSH1 0x40 PUSH1 0x0 KECCAK256 PUSH1 0x0 SWAP2 POP SWAP1 POP DUP1 PUSH1 0x0 ADD DUP1 SLOAD PUSH2 0x14B SWAP1 PUSH2 0x7D3 JUMP JUMPDEST DUP1 PUSH1 0x1F ADD PUSH1 0x20 DUP1 SWAP2 DIV MUL PUSH1 0x20 ADD PUSH1 0x40 MLOAD SWAP1 DUP2 ADD PUSH1 0x40 MSTORE DUP1 SWAP3 SWAP2 SWAP1 DUP2 DUP2 MSTORE PUSH1 0x20 ADD DUP3 DUP1 SLOAD PUSH2 0x177 SWAP1 PUSH2 0x7D3 JUMP JUMPDEST DUP1 ISZERO PUSH2 0x1C4 JUMPI DUP1 PUSH1 0x1F LT PUSH2 0x199 JUMPI PUSH2 0x100 DUP1 DUP4 SLOAD DIV MUL DUP4 MSTORE SWAP2 PUSH1 0x20 ADD SWAP2 PUSH2 0x1C4 JUMP JUMPDEST DUP3 ADD SWAP2 SWAP1 PUSH1 0x0 MSTORE PUSH1 0x20 PUSH1 0x0 KECCAK256 SWAP1 JUMPDEST DUP2 SLOAD DUP2 MSTORE SWAP1 PUSH1 0x1 ADD SWAP1 PUSH1 0x20 ADD DUP1 DUP4 GT PUSH2 0x1A7 JUMPI DUP3 SWAP1 SUB PUSH1 0x1F AND DUP3 ADD SWAP2 JUMPDEST POP POP POP POP POP SWAP1 DUP1 PUSH1 0x1 ADD PUSH1 0x0 SWAP1 SLOAD SWAP1 PUSH2 0x100 EXP SWAP1 DIV PUSH1 0xFF AND SWAP1 POP DUP3 JUMP JUMPDEST PUSH1 0x2 PUSH1 0x0 SWAP1 SLOAD SWAP1 PUSH2 0x100 EXP SWAP1 DIV PUSH20 0xFFFFFFFFFFFFFFFFFFFFFFFFFFFFFFFFFFFFFFFF AND DUP2 JUMP JUMPDEST CALLER PUSH20 0xFFFFFFFFFFFFFFFFFFFFFFFFFFFFFFFFFFFFFFFF AND PUSH1 0x2 PUSH1 0x0 SWAP1 SLOAD SWAP1 PUSH2 0x100 EXP SWAP1 DIV PUSH20 0xFFFFFFFFFFFFFFFFFFFFFFFFFFFFFFFFFFFFFFFF AND PUSH20 0xFFFFFFFFFFFFFFFFFFFFFFFFFFFFFFFFFFFFFFFF AND EQ PUSH2 0x261 JUMPI PUSH1 0x0 DUP1 REVERT JUMPDEST PUSH1 0x0 DUP1 DUP3 DUP2 MSTORE PUSH1 0x20 ADD SWAP1 DUP2 MSTORE PUSH1 0x20 ADD PUSH1 0x0 KECCAK256 PUSH1 0x0 DUP1 DUP3 ADD PUSH1 0x0 PUSH2 0x284 SWAP2 SWAP1 PUSH2 0x40C JUMP JUMPDEST PUSH1 0x1 DUP3 ADD PUSH1 0x0 PUSH2 0x100 EXP DUP2 SLOAD SWAP1 PUSH1 0xFF MUL NOT AND SWAP1 SSTORE POP POP PUSH1 0x1 PUSH1 0x0 DUP2 SLOAD DUP1 SWAP3 SWAP2 SWAP1 PUSH2 0x2AD SWAP1 PUSH2 0x7A9 JUMP JUMPDEST SWAP2 SWAP1 POP SSTORE POP POP JUMP JUMPDEST CALLER PUSH20 0xFFFFFFFFFFFFFFFFFFFFFFFFFFFFFFFFFFFFFFFF AND PUSH1 0x2 PUSH1 0x0 SWAP1 SLOAD SWAP1 PUSH2 0x100 EXP SWAP1 DIV PUSH20 0xFFFFFFFFFFFFFFFFFFFFFFFFFFFFFFFFFFFFFFFF AND PUSH20 0xFFFFFFFFFFFFFFFFFFFFFFFFFFFFFFFFFFFFFFFF AND EQ PUSH2 0x30F JUMPI PUSH1 0x0 DUP1 REVERT JUMPDEST PUSH1 0x0 DUP1 PUSH1 0x0 DUP4 DUP2 MSTORE PUSH1 0x20 ADD SWAP1 DUP2 MSTORE PUSH1 0x20 ADD PUSH1 0x0 KECCAK256 SWAP1 POP PUSH1 0x1 DUP2 PUSH1 0x1 ADD PUSH1 0x0 PUSH2 0x100 EXP DUP2 SLOAD DUP2 PUSH1 0xFF MUL NOT AND SWAP1 DUP4 ISZERO ISZERO MUL OR SWAP1 SSTORE POP POP POP JUMP JUMPDEST CALLER PUSH20 0xFFFFFFFFFFFFFFFFFFFFFFFFFFFFFFFFFFFFFFFF AND PUSH1 0x2 PUSH1 0x0 SWAP1 SLOAD SWAP1 PUSH2 0x100 EXP SWAP1 DIV PUSH20 0xFFFFFFFFFFFFFFFFFFFFFFFFFFFFFFFFFFFFFFFF AND PUSH20 0xFFFFFFFFFFFFFFFFFFFFFFFFFFFFFFFFFFFFFFFF AND EQ PUSH2 0x3A0 JUMPI PUSH1 0x0 DUP1 REVERT JUMPDEST PUSH1 0x0 DUP1 PUSH1 0x0 PUSH1 0x1 PUSH1 0x0 DUP2 SLOAD DUP1 SWAP3 SWAP2 SWAP1 PUSH2 0x3B8 SWAP1 PUSH2 0x805 JUMP JUMPDEST SWAP2 SWAP1 POP SSTORE DUP2 MSTORE PUSH1 0x20 ADD SWAP1 DUP2 MSTORE PUSH1 0x20 ADD PUSH1 0x0 KECCAK256 SWAP1 POP DUP2 DUP2 PUSH1 0x0 ADD SWAP1 DUP1 MLOAD SWAP1 PUSH1 0x20 ADD SWAP1 PUSH2 0x3E4 SWAP3 SWAP2 SWAP1 PUSH2 0x44C JUMP JUMPDEST POP PUSH1 0x0 DUP2 PUSH1 0x1 ADD PUSH1 0x0 PUSH2 0x100 EXP DUP2 SLOAD DUP2 PUSH1 0xFF MUL NOT AND SWAP1 DUP4 ISZERO ISZERO MUL OR SWAP1 SSTORE POP POP POP JUMP JUMPDEST PUSH1 0x1 SLOAD DUP2 JUMP JUMPDEST POP DUP1 SLOAD PUSH2 0x418 SWAP1 PUSH2 0x7D3 JUMP JUMPDEST PUSH1 0x0 DUP3 SSTORE DUP1 PUSH1 0x1F LT PUSH2 0x42A JUMPI POP PUSH2 0x449 JUMP JUMPDEST PUSH1 0x1F ADD PUSH1 0x20 SWAP1 DIV SWAP1 PUSH1 0x0 MSTORE PUSH1 0x20 PUSH1 0x0 KECCAK256 SWAP1 DUP2 ADD SWAP1 PUSH2 0x448 SWAP2 SWAP1 PUSH2 0x4D2 JUMP JUMPDEST JUMPDEST POP JUMP JUMPDEST DUP3 DUP1 SLOAD PUSH2 0x458 SWAP1 PUSH2 0x7D3 JUMP JUMPDEST SWAP1 PUSH1 0x0 MSTORE PUSH1 0x20 PUSH1 0x0 KECCAK256 SWAP1 PUSH1 0x1F ADD PUSH1 0x20 SWAP1 DIV DUP2 ADD SWAP3 DUP3 PUSH2 0x47A JUMPI PUSH1 0x0 DUP6 SSTORE PUSH2 0x4C1 JUMP JUMPDEST DUP3 PUSH1 0x1F LT PUSH2 0x493 JUMPI DUP1 MLOAD PUSH1 0xFF NOT AND DUP4 DUP1 ADD OR DUP6 SSTORE PUSH2 0x4C1 JUMP JUMPDEST DUP3 DUP1 ADD PUSH1 0x1 ADD DUP6 SSTORE DUP3 ISZERO PUSH2 0x4C1 JUMPI SWAP2 DUP3 ADD JUMPDEST DUP3 DUP2 GT ISZERO PUSH2 0x4C0 JUMPI DUP3 MLOAD DUP3 SSTORE SWAP2 PUSH1 0x20 ADD SWAP2 SWAP1 PUSH1 0x1 ADD SWAP1 PUSH2 0x4A5 JUMP JUMPDEST JUMPDEST POP SWAP1 POP PUSH2 0x4CE SWAP2 SWAP1 PUSH2 0x4D2 JUMP JUMPDEST POP SWAP1 JUMP JUMPDEST JUMPDEST DUP1 DUP3 GT ISZERO PUSH2 0x4EB JUMPI PUSH1 0x0 DUP2 PUSH1 0x0 SWAP1 SSTORE POP PUSH1 0x1 ADD PUSH2 0x4D3 JUMP JUMPDEST POP SWAP1 JUMP JUMPDEST PUSH1 0x0 PUSH2 0x502 PUSH2 0x4FD DUP5 PUSH2 0x6D3 JUMP JUMPDEST PUSH2 0x6A2 JUMP JUMPDEST SWAP1 POP DUP3 DUP2 MSTORE PUSH1 0x20 DUP2 ADD DUP5 DUP5 DUP5 ADD GT ISZERO PUSH2 0x51A JUMPI PUSH1 0x0 DUP1 REVERT JUMPDEST PUSH2 0x525 DUP5 DUP3 DUP6 PUSH2 0x767 JUMP JUMPDEST POP SWAP4 SWAP3 POP POP POP JUMP JUMPDEST PUSH1 0x0 DUP3 PUSH1 0x1F DUP4 ADD SLT PUSH2 0x53E JUMPI PUSH1 0x0 DUP1 REVERT JUMPDEST DUP2 CALLDATALOAD PUSH2 0x54E DUP5 DUP3 PUSH1 0x20 DUP7 ADD PUSH2 0x4EF JUMP JUMPDEST SWAP2 POP POP SWAP3 SWAP2 POP POP JUMP JUMPDEST PUSH1 0x0 DUP2 CALLDATALOAD SWAP1 POP PUSH2 0x566 DUP2 PUSH2 0x8EC JUMP JUMPDEST SWAP3 SWAP2 POP POP JUMP JUMPDEST PUSH1 0x0 PUSH1 0x20 DUP3 DUP5 SUB SLT ISZERO PUSH2 0x57E JUMPI PUSH1 0x0 DUP1 REVERT JUMPDEST PUSH1 0x0 DUP3 ADD CALLDATALOAD PUSH8 0xFFFFFFFFFFFFFFFF DUP2 GT ISZERO PUSH2 0x598 JUMPI PUSH1 0x0 DUP1 REVERT JUMPDEST PUSH2 0x5A4 DUP5 DUP3 DUP6 ADD PUSH2 0x52D JUMP JUMPDEST SWAP2 POP POP SWAP3 SWAP2 POP POP JUMP JUMPDEST PUSH1 0x0 PUSH1 0x20 DUP3 DUP5 SUB SLT ISZERO PUSH2 0x5BF JUMPI PUSH1 0x0 DUP1 REVERT JUMPDEST PUSH1 0x0 PUSH2 0x5CD DUP5 DUP3 DUP6 ADD PUSH2 0x557 JUMP JUMPDEST SWAP2 POP POP SWAP3 SWAP2 POP POP JUMP JUMPDEST PUSH2 0x5DF DUP2 PUSH2 0x71F JUMP JUMPDEST DUP3 MSTORE POP POP JUMP JUMPDEST PUSH2 0x5EE DUP2 PUSH2 0x731 JUMP JUMPDEST DUP3 MSTORE POP POP JUMP JUMPDEST PUSH1 0x0 PUSH2 0x5FF DUP3 PUSH2 0x703 JUMP JUMPDEST PUSH2 0x609 DUP2 DUP6 PUSH2 0x70E JUMP JUMPDEST SWAP4 POP PUSH2 0x619 DUP2 DUP6 PUSH1 0x20 DUP7 ADD PUSH2 0x776 JUMP JUMPDEST PUSH2 0x622 DUP2 PUSH2 0x8DB JUMP JUMPDEST DUP5 ADD SWAP2 POP POP SWAP3 SWAP2 POP POP JUMP JUMPDEST PUSH2 0x636 DUP2 PUSH2 0x75D JUMP JUMPDEST DUP3 MSTORE POP POP JUMP JUMPDEST PUSH1 0x0 PUSH1 0x20 DUP3 ADD SWAP1 POP PUSH2 0x651 PUSH1 0x0 DUP4 ADD DUP5 PUSH2 0x5D6 JUMP JUMPDEST SWAP3 SWAP2 POP POP JUMP JUMPDEST PUSH1 0x0 PUSH1 0x40 DUP3 ADD SWAP1 POP DUP2 DUP2 SUB PUSH1 0x0 DUP4 ADD MSTORE PUSH2 0x671 DUP2 DUP6 PUSH2 0x5F4 JUMP JUMPDEST SWAP1 POP PUSH2 0x680 PUSH1 0x20 DUP4 ADD DUP5 PUSH2 0x5E5 JUMP JUMPDEST SWAP4 SWAP3 POP POP POP JUMP JUMPDEST PUSH1 0x0 PUSH1 0x20 DUP3 ADD SWAP1 POP PUSH2 0x69C PUSH1 0x0 DUP4 ADD DUP5 PUSH2 0x62D JUMP JUMPDEST SWAP3 SWAP2 POP POP JUMP JUMPDEST PUSH1 0x0 PUSH1 0x40 MLOAD SWAP1 POP DUP2 DUP2 ADD DUP2 DUP2 LT PUSH8 0xFFFFFFFFFFFFFFFF DUP3 GT OR ISZERO PUSH2 0x6C9 JUMPI PUSH2 0x6C8 PUSH2 0x8AC JUMP JUMPDEST JUMPDEST DUP1 PUSH1 0x40 MSTORE POP SWAP2 SWAP1 POP JUMP JUMPDEST PUSH1 0x0 PUSH8 0xFFFFFFFFFFFFFFFF DUP3 GT ISZERO PUSH2 0x6EE JUMPI PUSH2 0x6ED PUSH2 0x8AC JUMP JUMPDEST JUMPDEST PUSH1 0x1F NOT PUSH1 0x1F DUP4 ADD AND SWAP1 POP PUSH1 0x20 DUP2 ADD SWAP1 POP SWAP2 SWAP1 POP JUMP JUMPDEST PUSH1 0x0 DUP2 MLOAD SWAP1 POP SWAP2 SWAP1 POP JUMP JUMPDEST PUSH1 0x0 DUP3 DUP3 MSTORE PUSH1 0x20 DUP3 ADD SWAP1 POP SWAP3 SWAP2 POP POP JUMP JUMPDEST PUSH1 0x0 PUSH2 0x72A DUP3 PUSH2 0x73D JUMP JUMPDEST SWAP1 POP SWAP2 SWAP1 POP JUMP JUMPDEST PUSH1 0x0 DUP2 ISZERO ISZERO SWAP1 POP SWAP2 SWAP1 POP JUMP JUMPDEST PUSH1 0x0 PUSH20 0xFFFFFFFFFFFFFFFFFFFFFFFFFFFFFFFFFFFFFFFF DUP3 AND SWAP1 POP SWAP2 SWAP1 POP JUMP JUMPDEST PUSH1 0x0 DUP2 SWAP1 POP SWAP2 SWAP1 POP JUMP JUMPDEST DUP3 DUP2 DUP4 CALLDATACOPY PUSH1 0x0 DUP4 DUP4 ADD MSTORE POP POP POP JUMP JUMPDEST PUSH1 0x0 JUMPDEST DUP4 DUP2 LT ISZERO PUSH2 0x794 JUMPI DUP1 DUP3 ADD MLOAD DUP2 DUP5 ADD MSTORE PUSH1 0x20 DUP2 ADD SWAP1 POP PUSH2 0x779 JUMP JUMPDEST DUP4 DUP2 GT ISZERO PUSH2 0x7A3 JUMPI PUSH1 0x0 DUP5 DUP5 ADD MSTORE JUMPDEST POP POP POP POP JUMP JUMPDEST PUSH1 0x0 PUSH2 0x7B4 DUP3 PUSH2 0x75D JUMP JUMPDEST SWAP2 POP PUSH1 0x0 DUP3 EQ ISZERO PUSH2 0x7C8 JUMPI PUSH2 0x7C7 PUSH2 0x84E JUMP JUMPDEST JUMPDEST PUSH1 0x1 DUP3 SUB SWAP1 POP SWAP2 SWAP1 POP JUMP JUMPDEST PUSH1 0x0 PUSH1 0x2 DUP3 DIV SWAP1 POP PUSH1 0x1 DUP3 AND DUP1 PUSH2 0x7EB JUMPI PUSH1 0x7F DUP3 AND SWAP2 POP JUMPDEST PUSH1 0x20 DUP3 LT DUP2 EQ ISZERO PUSH2 0x7FF JUMPI PUSH2 0x7FE PUSH2 0x87D JUMP JUMPDEST JUMPDEST POP SWAP2 SWAP1 POP JUMP JUMPDEST PUSH1 0x0 PUSH2 0x810 DUP3 PUSH2 0x75D JUMP JUMPDEST SWAP2 POP PUSH32 0xFFFFFFFFFFFFFFFFFFFFFFFFFFFFFFFFFFFFFFFFFFFFFFFFFFFFFFFFFFFFFFFF DUP3 EQ ISZERO PUSH2 0x843 JUMPI PUSH2 0x842 PUSH2 0x84E JUMP JUMPDEST JUMPDEST PUSH1 0x1 DUP3 ADD SWAP1 POP SWAP2 SWAP1 POP JUMP JUMPDEST PUSH32 0x4E487B7100000000000000000000000000000000000000000000000000000000 PUSH1 0x0 MSTORE PUSH1 0x11 PUSH1 0x4 MSTORE PUSH1 0x24 PUSH1 0x0 REVERT JUMPDEST PUSH32 0x4E487B7100000000000000000000000000000000000000000000000000000000 PUSH1 0x0 MSTORE PUSH1 0x22 PUSH1 0x4 MSTORE PUSH1 0x24 PUSH1 0x0 REVERT JUMPDEST PUSH32 0x4E487B7100000000000000000000000000000000000000000000000000000000 PUSH1 0x0 MSTORE PUSH1 0x41 PUSH1 0x4 MSTORE PUSH1 0x24 PUSH1 0x0 REVERT JUMPDEST PUSH1 0x0 PUSH1 0x1F NOT PUSH1 0x1F DUP4 ADD AND SWAP1 POP SWAP2 SWAP1 POP JUMP JUMPDEST PUSH2 0x8F5 DUP2 PUSH2 0x75D JUMP JUMPDEST DUP2 EQ PUSH2 0x900 JUMPI PUSH1 0x0 DUP1 REVERT JUMPDEST POP JUMP INVALID LOG2 PUSH5 0x6970667358 0x22 SLT KECCAK256 0xC9 PUSH24 0xD0D7D821F4C62E77DEF8B26A9C55A6800991A915A1BFCF26 SSTORE PUSH19 0x3D35E5C064736F6C6343000800003300000000 "},"gasEstimates":{"creation":{"codeDepositCost":"472200","executionCost":"21371","totalCost":"493571"},"external":{"create(string)":"infinite","deleteTask(uint256)":"infinite","manager()":"1214","markComplete(uint256)":"22284","numberOfTask()":"1217","taskToDo(uint256)":"infinite"}},"methodIdentifiers":{"create(string)":"b6a46b3b","deleteTask(uint256)":"560f3192","manager()":"481c6a75","markComplete(uint256)":"67067ed6","numberOfTask()":"fc8d0374","taskToDo(uint256)":"062ffdff"}},"storageLayout":{"storage":[{"astId":11,"contract":"todolist.sol:todo_list","label":"taskToDo","offset":0,"slot":"0","type":"t_mapping(t_uint256,t_struct(Task)6_storage)"},{"astId":13,"contract":"todolist.sol:todo_list","label":"numberOfTask","offset":0,"slot":"1","type":"t_uint256"},{"astId":15,"contract":"todolist.sol:todo_list","label":"manager","offset":0,"slot":"2","type":"t_address"}],"types":{"t_address":{"encoding":"inplace","label":"address","numberOfBytes":"20"},"t_bool":{"encoding":"inplace","label":"bool","numberOfBytes":"1"},"t_mapping(t_uint256,t_struct(Task)6_storage)":{"encoding":"mapping","key":"t_uint256","label":"mapping(uint256 => struct todo_list.Task)","numberOfBytes":"32","value":"t_struct(Task)6_storage"},"t_string_storage":{"encoding":"bytes","label":"string","numberOfBytes":"32"},"t_struct(Task)6_storage":{"encoding":"inplace","label":"struct todo_list.Task","members":[{"astId":3,"contract":"todolist.sol:todo_list","label":"task","offset":0,"slot":"0","type":"t_string_storage"},{"astId":5,"contract":"todolist.sol:todo_list","label":"isDone","offset":0,"slot":"1","type":"t_bool"}],"numberOfBytes":"64"},"t_uint256":{"encoding":"inplace","label":"uint256","numberOfBytes":"32"}}},"userdoc":{"kind":"user","methods":{},"version":1}}